:020000040800F2
:10000000002800200D180008BD150008C5150008BF
:10001000CD150008D5150008DD150008000000000A
:10002000000000000000000000000000E5150008CE
:10003000F115000800000000FD1500080916000871
:1000400055180008551800085518000855180008DC
:1000500055180008551800085518000855180008CC
:1000600055180008551800085518000855180008BC
:1000700055180008551800085518000855180008AC
:10008000551800085518000855180008551800089C
:10009000551800085518000855180008551800088C
:1000A000551800085518000855180008551800087C
:1000B0001516000855180008000000005518000823
:1000C0005518000800000000000000005518000846
:1000D0000000000055180008551800080000000036
:1000E00055180008551800085518000800000000B1
:1000F0000000000000000000000000000000000000
:0C01000000000000000000005FF808F1A3
:10010C0010B5054C237833B9044B13B10448AFF345
:10011C0000800123237010BD680000200000000047
:10012C008C2E000808B5034B1BB103490348AFF3F1
:10013C00008008BD000000006C0000208C2E000820
:10014C0080B582B000AF78607B68032B00F24D84E1
:10015C0001A252F823F000BF7501000881030008CA
:10016C00AD050008D9070008C54B1B68002BC0F271
:10017C003E84C34B1B68032B00F33984C04B1B68B4
:10018C00C04A52F82330092B00F2EF8001A252F83A
:10019C0023F000BFC9010008F50100082102000886
:1001AC004D02000879020008A5020008D1020008DF
:1001BC00FD020008290300084B03000800228021DF
:1001CC00B14801F046FE01224FF4E061AE4801F067
:1001DC0040FE01224021AC4801F03BFE00223F21B1
:1001EC00A94801F036FEC1E000228021A64801F0AA
:1001FC0030FE01224FF4E061A34801F02AFE0122F7
:10020C007921A14801F025FE002206219E4801F02B
:10021C0020FEABE0002280219B4801F01AFE012257
:10022C004FF4E061984801F014FE01222421964815
:10023C0001F00FFE00225B21934801F00AFE95E0CD
:10024C0000228021904801F004FE01224FF4E0616D
:10025C008D4801F0FEFD012230218B4801F0F9FDA3
:10026C0000224F21884801F0F4FD7FE0002280211C
:10027C00854801F0EEFD01224FF4E061824801F067
:10028C00E8FD01221921804801F0E3FD00226621DE
:10029C007D4801F0DEFD69E0002280217A4801F002
:1002AC00D8FD01224FF4E061774801F0D2FD012224
:1002BC001221754801F0CDFD00226D21724801F02C
:1002CC00C8FD53E0002280216F4801F0C2FD0122DD
:1002DC004FF4E0616C4801F0BCFD012202216A4838
:1002EC0001F0B7FD00227D21674801F0B2FD3DE031
:1002FC0000228021644801F0ACFD01224FF4E06142
:10030C00614801F0A6FD012278215F4801F0A1FDB2
:10031C00002207215C4801F09CFD27E0002280218F
:10032C00594801F096FD01224FF4E061564801F066
:10033C0090FD00227F21544801F08BFD16E0002235
:10034C008021514801F085FD01224FF4E0614E48B7
:10035C0001F07FFD012210214B4801F07AFD0022B3
:10036C006F21494801F075FD00E000BF444B0122AC
:10037C001A603CE3424B1B68002BC0F23A83404BA3
:10038C001B68032B00F335833D4B1B683D4A52F829
:10039C002330092B00F2FF8001A252F823F000BF9A
:1003AC00D503000803040008310400085F040008AA
:1003BC0099040008C7040008F50400082305000888
:1003CC00510500087505000800224FF480712E4875
:1003DC0001F03FFD01224FF4D0612B4801F039FDB3
:1003EC0001224021284801F034FD00223F212648FB
:1003FC0001F02FFDD0E000224FF48071224801F073
:10040C0028FD01224FF4D0611F4801F022FD01228A
:10041C0079211D4801F01DFD002206211A4801F02A
:10042C0018FDB9E000224FF48071174801F011FD5E
:10043C0001224FF4D061144801F00BFD012224215C
:10044C00114801F006FD00225B210F4801F001FD6F
:10045C00A2E000224FF480710B4801F0FAFC01225B
:10046C004FF4D061084801F0F4FC01223021064819
:10047C0001F0EFFC00224F21034801F0EAFC8BE075
:10048C009400002084000020000C014000224FF456
:10049C008071CB4801F0DDFC01224FF4D061C848DB
:1004AC0001F0D7FC01221921C54801F0D2FC002231
:1004BC006621C34801F0CDFC6EE000224FF4807140
:1004CC00BF4801F0C6FC01224FF4D061BC4801F0DA
:1004DC00C0FC01221221BA4801F0BBFC00226D21A4
:1004EC00B74801F0B6FC57E000224FF48071B448D5
:1004FC0001F0AFFC01224FF4D061B14801F0A9FC2E
:10050C0001220221AE4801F0A4FC00227D21AC485E
:10051C0001F09FFC40E000224FF48071A84801F0EC
:10052C0098FC01224FF4D061A54801F092FC012205
:10053C007821A34801F08DFC00220721A04801F08E
:10054C0088FC29E000224FF480719D4801F081FC69
:10055C0001224FF4D0619A4801F07BFC00227F21EC
:10056C00974801F076FC17E000224FF48071944814
:10057C0001F06FFC01224FF4D061914801F069FC4D
:10058C00012210218E4801F064FC00226F218C485E
:10059C0001F05FFC00E000BF8A4B02221A6028E2E7
:1005AC00884B1B68002BC0F22682864B1B68032BE2
:1005BC0000F32182834B1B68834A52F82330092BAA
:1005CC0000F2F98001A252F823F000BF01060008E6
:1005DC002F0600085D0600088B060008B906000807
:1005EC00E706000815070008430700087107000814
:1005FC009507000800224FF40071714801F029FCA6
:10060C0001224FF4B0616E4801F023FC012240211D
:10061C006B4801F01EFC00223F21694801F019FCD7
:10062C00CAE000224FF40071654801F012FC01226F
:10063C004FF4B061624801F00CFC01227921604852
:10064C0001F007FC002206215D4801F002FCB3E03A
:10065C0000224FF400715A4801F0FBFB01224FF4C9
:10066C00B061574801F0F5FB01222421544801F0F8
:10067C00F0FB00225B21524801F0EBFB9CE00022D6
:10068C004FF400714E4801F0E4FB01224FF4B061CD
:10069C004B4801F0DEFB01223021494801F0D9FB27
:1006AC0000224F21464801F0D4FB85E000224FF494
:1006BC000071434801F0CDFB01224FF4B06140487A
:1006CC0001F0C7FB012219213D4801F0C2FB0022B9
:1006DC0066213B4801F0BDFB6EE000224FF4007137
:1006EC00374801F0B6FB01224FF4B061344801F0F9
:1006FC00B0FB01221221324801F0ABFB00226D212C
:10070C002F4801F0A6FB57E000224FF400712C4853
:10071C0001F09FFB01224FF4B061294801F099FBD5
:10072C0001220221264801F094FB00227D2124485D
:10073C0001F08FFB40E000224FF40071204801F0E3
:10074C0088FB01224FF4B0611D4801F082FB0122AD
:10075C0078211B4801F07DFB00220721184801F08D
:10076C0078FB29E000224FF40071154801F071FB71
:10077C0001224FF4B061124801F06BFB00227F2183
:10078C000F4801F066FB17E000224FF400710C4893
:10079C0001F05FFB01224FF4B061094801F059FBF5
:1007AC0001221021064801F054FB00226F2104485D
:1007BC0001F04FFB00E000BF024B03221A601AE16C
:1007CC00000C014094000020840000208C4B1B681E
:1007DC00002BC0F20A818A4B1B68032B00F30581A6
:1007EC00874B1B68874A52F82330092B00F2F9809B
:1007FC0001A252F823F000BF2D0800085B08000886
:10080C0089080008B7080008E50800081309000863
:10081C00410900086F0900089D090008C10900087A
:10082C0000224FF48061784801F013FB01224FF451
:10083C006071754801F00DFB01224021724801F0F6
:10084C0008FB00223F21704801F003FBCAE00022A4
:10085C004FF480616C4801F0FCFA01224FF4607196
:10086C00694801F0F6FA01227921674801F0F1FAA2
:10087C0000220621644801F0ECFAB3E000224FF4A8
:10088C008061614801F0E5FA01224FF460715E4825
:10089C0001F0DFFA012224215B4801F0DAFA002290
:1008AC005B21594801F0D5FA9CE000224FF480619D
:1008BC00554801F0CEFA01224FF46071524801F014
:1008CC00C8FA01223021504801F0C3FA00224F210E
:1008DC004D4801F0BEFA85E000224FF480614A4891
:1008EC0001F0B7FA01224FF46071474801F0B1FAF8
:1008FC0001221921444801F0ACFA00226621424839
:10090C0001F0A7FA6EE000224FF480613E4801F03E
:10091C00A0FA01224FF460713B4801F09AFA0122CF
:10092C001221394801F095FA00226D21364801F068
:10093C0090FA57E000224FF48061334801F089FAB5
:10094C0001224FF46071304801F083FA0122022138
:10095C002D4801F07EFA00227D212B4801F079FA16
:10096C0040E000224FF48061274801F072FA012226
:10097C004FF46071244801F06CFA0122782122486E
:10098C0001F067FA002207211F4801F062FA29E002
:10099C0000224FF480611C4801F05BFA01224FF4F5
:1009AC006071194801F055FA00227F21164801F0B8
:1009BC0050FA17E000224FF48061134801F049FA15
:1009CC0001224FF46071104801F043FA012210210A
:1009DC000D4801F03EFA00226F210B4801F039FA64
:1009EC0000E000BF064B00221A6000BF04E000BF0D
:1009FC0002E000BF00E000BF00BF0837BD4680BD6D
:100A0C009400002084000020000C014080B483B0CE
:100A1C0000AF78607B680D4A82FB03129210DB17E3
:100A2C00D31A0B4A13607968084B83FB01239A1085
:100A3C00CB17D21A13469B0013445B00CA1A044B03
:100A4C005A6000BF0C37BD4680BC7047676666664F
:100A5C008400002080B483B000AF78607B680D4ABE
:100A6C0082FB03129210DB17D31A0B4A936079683E
:100A7C00084B83FB01239A10CB17D21A13469B0009
:100A8C0013445B00CA1A044BDA6000BF0C37BD4636
:100A9C0080BC7047676666668400002080B500AF36
:100AAC00124B1B68002B1ED001228021104801F034
:100ABC00D0F901224FF480710D4801F0CAF90122DE
:100ACC004FF400710A4801F0C4F901224FF480611F
:100ADC00074801F0BEF9074B1B681846FFF730FBBF
:100AEC00642000F009FE00BF80BD00BF5C00002048
:100AFC00000C01409400002080B500AF084B1B682F
:100B0C00012B0BD14FF4FA7000F08EFD044B002238
:100B1C001A604FF48051034801F0B3F900BF80BD57
:100B2C004C000020000C014080B500AF134B00229C
:100B3C001A70134B1B68134A1360114B5B68124AF3
:100B4C0013600F4B9B68114A1360114B02221A70F1
:100B5C000B4B1B680F4A1360094B5B680E4A136002
:100B6C00074B9B680D4A136000F01EF90C4B0122D9
:100B7C001A600C4B01221A6000BF80BD9800002047
:100B8C00100000201C000020200000202400002069
:100B9C0000000020280000202C0000203000002045
:100BAC00500000205400002080B500AF734B1B7820
:100BBC00022B27D0022B6CDC002B02D0012B42D055
:100BCC0067E06F4B1B68002B5ED000F017FC6D4B81
:100BDC001B681846FFF73EFF6A4B1B68013B694ACE
:100BEC001360684B1B68002B07DA644B02221A70E7
:100BFC00654B1B68634A136046E04FF47A7000F053
:100C0C002DFD41E05E4B1B68002B3FD000F022FC19
:100C1C005E4B1B681846FFF71DFF5C4B1B68013BC6
:100C2C005A4A1360594B1B68002B07DA534B0122AD
:100C3C001A70554B9B68554A136027E04FF47A7035
:100C4C0000F00CFD22E04E4B1B68002B20D000F076
:100C5C00EBFB4F4B1B681846FFF7FCFE4C4B1B681D
:100C6C00013B4B4A13604A4B1B68002B07DA434B82
:100C7C0000221A70444B5B68454A136008E04FF43D
:100C8C007A7000F0EBFC03E000BF02E000BF00E074
:100C9C0000BF404B1B78022B27D0022B6CDC002BA7
:100CAC0002D0012B42D067E03B4B1B68002B5ED07F
:100CBC0000F0E6FB394B1B681846FFF7A7FE374BD5
:100CCC001B68013B354A1360344B1B68002B07DA59
:100CDC00304B02221A702C4B1B68304A136046E0D2
:100CEC004FF47A7000F0D4FC41E02B4B1B68002BC6
:100CFC003FD000F0F1FB2A4B1B681846FFF786FE2D
:100D0C00274B1B68013B264A1360254B1B68002BA5
:100D1C0007DA204B01221A701B4B9B68204A136088
:100D2C0027E04FF47A7000F0B3FC22E01A4B1B68FA
:100D3C00002B20D000F0BAFB1A4B1B681846FFF7AB
:100D4C0065FE184B1B68013B164A1360154B1B685C
:100D5C00002B07DA0F4B00221A700B4B5B68114A01
:100D6C00136008E04FF47A7000F092FC03E000BFCF
:100D7C0002E000BF00E000BF00BF80BD9800002073
:100D8C00500000201C000020100000202400002037
:100D9C00200000200000002054000020280000202B
:100DAC00300000202C00002080B500AF0122022171
:100DBC000E4801F04EF8012204210C4801F049F8CC
:100DCC0001220821094801F044F8012210210748AA
:100DDC0001F03FF801224021044801F03AF80122C9
:100DEC002021024801F035F800BF80BD0008014009
:100DFC0080B582B000AF0346FB711D4B1B68012B05
:100E0C0031D1FB79022B13D0022B2BDC002B02D01F
:100E1C00012B1AD026E00221164801F032F81021DD
:100E2C00144801F02EF84FF4FA7000F04BFC1AE065
:100E3C000821104801F025F840210E4801F021F856
:100E4C004FF4FA7000F03EFC0DE00421094801F06B
:100E5C0018F82021074801F014F84FF4FA7000F04C
:100E6C0031FC00E000BF00BF0837BD4680BD00BFAD
:100E7C00580000200008014080B584B000AF7860B5
:100E8C00FFF792FF0023FB6007E0114AFB6800218B
:100E9C0042F82310FB680133FB60FB68022BF4DD86
:100EAC000C4A7B6852F823200B497B6841F82320BD
:100EBC007B6802331846FFF7A9FD074A7B6852F896
:100ECC0023301846FFF7C6FD00BF1037BD4680BD66
:100EDC009C000020100000200400002080B500AF12
:100EEC00FFF7DCFDFFF708FE2E4B1B78032B56D8C3
:100EFC0001A252F823F000BF150F0008350F0008AF
:100F0C005D0F0008850F0008002000F0D9F803469B
:100F1C00002B06D0234B01221A700020FFF7ACFFE8
:100F2C003DE0FFF741FE3AE0002000F0C9F803462F
:100F3C00002B06D01B4B02221A700120FFF79CFFDE
:100F4C002DE00020FFF754FF002000F02DF826E0E4
:100F5C00002000F0B5F80346002B06D0114B0322FD
:100F6C001A700220FFF788FF19E00120FFF740FFFD
:100F7C00012000F019F812E0002000F0A1F803465F
:100F8C00002B05D0074B00221A70FFF7CDFD05E0B2
:100F9C000220FFF72DFF022000F006F800BF00BF73
:100FAC0080BD00BF9900002080B582B000AF034621
:100FBC00FB71012000F084F80346002B1AD0FB795A
:100FCC00154A52F82330632B05D1FB79124A0121C3
:100FDC0042F8231007E0FB790F4A52F82320013224
:100FEC000D4941F82320FB790B4A52F8233018465F
:100FFC00FFF730FD022000F063F80346002B07D00A
:10100C00FA79FB79044951F82220044941F823204C
:10101C0000BF0837BD4680BD040000201000002032
:10102C0080B582B000AF00237B603AE0214A7B6838
:10103C0013441B78002B15D0012B2FD17B68DBB20E
:10104C00184600F09DF80346002B24D000224FF4E4
:10105C000051194800F0FDFE164A7B68134400222B
:10106C001A7018E07B68DBB2184600F089F803466A
:10107C00002B12D101224FF400510F4800F0E9FE71
:10108C000C4A7B68134401221A700C4A7B680121BC
:10109C0042F8231001E000BF00E000BF7B68013381
:1010AC007B607B68022BC1DD00BF00BF0837BD46EB
:1010BC0080BD00BF34000020000C01409C000020CB
:1010CC0080B483B000AF7860094A7B6852F8233053
:1010DC00002B06D0064A7B68002142F8231001231E
:1010EC0000E0002318460C37BD4680BC704700BF9B
:1010FC009C00002080B582B000AF00237B602FE005
:10110C001B4A7B68134419781A4A7B6813440A46B5
:10111C001A704FF480727B6802FA03F39BB2194683
:10112C00154800F07FFE03461946114A7B681344AC
:10113C000A461A700E4A7B6813441A780D497B686C
:10114C000B441B789A4208D1094A7B6813441978DE
:10115C000A4A7B6813440A461A707B6801337B6029
:10116C007B68022BCCDD00BF00BF0837BD4680BDBD
:10117C003C00002040000020000801403800002006
:10118C0080B483B000AF0346FB71FB79022B01D90D
:10119C00002307E0FB79064AD35C002B0CBF01232C
:1011AC000023DBB218460C37BD4680BC704700BF2D
:1011BC003800002080B500AF00F048FB00F022F8AA
:1011CC0000F0A8F800F05AF80C4801F0A1FA01223E
:1011DC004FF480510A4800F03CFE01224FF40051BC
:1011EC00074800F036FE4FF47A7000F01DFAFFF756
:1011FC0017FFFFF773FE00BFF9E700BFA800002040
:10120C00000C014080B590B000AF07F11803282204
:10121C000021184601F008FE3B1D00221A605A609E
:10122C009A60DA601A610223BB610123BB6210234E
:10123C00FB6200237B6307F11803184600F03AFEAB
:10124C000346002B01D000F0D3F80F237B60002362
:10125C00BB600023FB6000233B6100237B613B1DD3
:10126C000021184601F0A8F80346002B01D000F02D
:10127C00BFF800BF4037BD4680BD000080B586B0CA
:10128C0000AF07F1080300221A605A609A60DA6016
:10129C003B4600221A605A601D4B4FF080421A6088
:1012AC001B4B41F63F725A60194B00229A60184B47
:1012BC000922DA60164B00221A61154B00229A6142
:1012CC00134801F0D5F90346002B01D000F090F83B
:1012DC004FF48053BB6007F1080319460C4801F02A
:1012EC0053FB0346002B01D000F082F800233B6037
:1012FC0000237B603B461946054801F02BFD034655
:10130C00002B01D000F074F800BF1837BD4680BD2B
:10131C00A800002080B586B000AF07F108030022BA
:10132C001A605A609A60DA60284B9B69274A43F02E
:10133C0004039361254B9B6903F004037B607B687A
:10134C00224B9B69214A43F0080393611F4B9B6915
:10135C0003F008033B603B6800227E211C4800F030
:10136C0078FD002243F2FF711A4800F072FD7E23D3
:10137C00BB600123FB6000233B6102237B6107F10F
:10138C0008031946124800F0D1FB43F2FF73BB600F
:10139C000123FB6000233B6102237B6107F10803FF
:1013AC0019460C4800F0C2FB4FF4E063BB6000230D
:1013BC00FB6001233B6107F108031946044800F068
:1013CC00B5FB00BF1837BD4680BD00BF0010024002
:1013DC0000080140000C014080B582B000AF78607D
:1013EC00FFF788FE00F0A2F900BF0837BD4680BDAC
:1013FC0080B400AF72B600BF00BFFDE780B500AF90
:10140C0000220221074800F024FD01220421054896
:10141C0000F01FFD01220821024800F01AFD00BF58
:10142C0080BD00BF0008014080B500AF0122022141
:10143C00074800F00EFD01220821054800F009FDC7
:10144C0000220421024800F004FD00BF80BD00BF53
:10145C000008014080B500AF01220221074800F0CE
:10146C00F8FC00220821054800F0F3FC01220421BD
:10147C00024800F0EEFC00BF80BD00BF0008014038
:10148C0080B500AF00221021074800F0E2FC0122D9
:10149C002021054800F0DDFC01224021024800F02B
:1014AC00D8FC00BF80BD00BF0008014080B500AF74
:1014BC0001221021074800F0CCFC012240210548F4
:1014CC0000F0C7FC00222021024800F0C2FC00BF43
:1014DC0080BD00BF0008014080B500AF0122102183
:1014EC00074800F0B6FC00224021054800F0B1FC92
:1014FC0001222021024800F0ACFC00BF80BD00BFDF
:10150C000008014080B485B000AF154B9B69144AAC
:10151C0043F001039361124B9B6903F00103BB6021
:10152C00BB680F4BDB690E4A43F08053D3610C4B05
:10153C00DB6903F080537B607B680A4B5B68FB6064
:10154C00FB6823F0E063FB60FB6843F08063FB60A7
:10155C00044AFB68536000BF1437BD4680BC70471B
:10156C00001002400000014080B584B000AF7860EC
:10157C007B681B68B3F1804F13D10C4BDB690B4AB2
:10158C0043F00103D361094BDB6903F00103FB60FA
:10159C00FB68002200211C2000F091FA1C2000F0B6
:1015AC00AAFA00BF1037BD4680BD00BF0010024034
:1015BC0080B400AF00BFFDE780B400AF00BFFDE713
:1015CC0080B400AF00BFFDE780B400AF00BFFDE703
:1015DC0080B400AF00BFFDE780B400AF00BFBD46D4
:1015EC0080BC704780B400AF00BFBD4680BC704764
:1015FC0080B400AF00BFBD4680BC704780B500AF63
:10160C0000F06AF900BF80BD80B500AF024801F060
:10161C00CBF800BF80BD00BFA800002080B400AF95
:10162C0000BFBD4680BC704780B483B000AF78600B
:10163C00074B1B687A6892FBF3F3064A1360064B60
:10164C0000221A6000BF0C37BD4680BC704700BF3B
:10165C0048000020F00000204C00002080B483B033
:10166C0000AF7860074B1B687A6892FBF3F3064A6D
:10167C001360064B00221A6000BF0C37BD4680BCBD
:10168C00704700BF48000020F400002050000020EC
:10169C0080B483B000AF7860074B1B687A6892FB0C
:1016AC00F3F3064A1360064B00221A6000BF0C3796
:1016BC00BD4680BC704700BF48000020F8000020E9
:1016CC005400002080B483B000AF7860074B1B68D7
:1016DC007A6892FBF3F3064A1360064B00221A60F9
:1016EC0000BF0C37BD4680BC704700BF48000020CF
:1016FC00FC0000205800002080B483B000AF78605C
:10170C00074B1B687A6892FBF3F3064A1360064B8F
:10171C0000221A6000BF0C37BD4680BC704700BF6A
:10172C0048000020000100205C00002080B400AFC5
:10173C00294B1B68002B0BDD274B1B68013B264AF2
:10174C001360254B1B68002B02D1244B01221A601D
:10175C00234B1B68002B0BDD214B1B68013B204AE4
:10176C0013601F4B1B68002B02D11E4B01221A6009
:10177C001D4B1B68002B0BDD1B4B1B68013B1A4AD6
:10178C001360194B1B68002B02D1184B01221A60F5
:10179C00174B1B68002B0BDD154B1B68013B144AC8
:1017AC001360134B1B68002B02D1124B01221A60E1
:1017BC00114B1B68002B0BDD0F4B1B68013B0E4ABA
:1017CC0013600D4B1B68002B02D10C4B01221A60CD
:1017DC0000BFBD4680BC7047F00000204C000020CC
:1017EC00F400002050000020F800002054000020DD
:1017FC00FC00002058000020000100205C000020AC
:10180C000C480D490D4A002302E0D458C45004334F
:10181C00C4188C42F9D30A4A0A4C002301E0136025
:10182C000432A242FBD3FFF7F9FE01F005FBFFF7F0
:10183C00C1FC70470000002068000020D02E00087A
:10184C006800002008010020FEE7000080B500AF12
:10185C00084B1B68074A43F010031360032000F089
:10186C0023F90F2000F008F8FFF74CFE0023184670
:10187C0080BD00BF0020024080B582B000AF786010
:10188C00124B1A68124B1B7819464FF47A73B3FB40
:10189C00F1F3B2FBF3F3184600F03BF90346002BCF
:1018AC0001D001230EE07B680F2B0AD80022796847
:1018BC004FF0FF3000F003F9064A7B6813600023F9
:1018CC0000E0012318460837BD4680BD44000020C7
:1018DC00640000206000002080B400AF054B1B7832
:1018EC001A46054B1B681344034A136000BFBD46E0
:1018FC0080BC7047640000200401002080B400AF5D
:10190C00024B1B681846BD4680BC70470401002082
:10191C0080B485B000AF78607B6803F00703FB6090
:10192C000C4BDB68BB60BA684FF6FF031340BB601F
:10193C00FB681A02BB68134343F0BF6343F40033E4
:10194C00BB60044ABB68D36000BF1437BD4680BC83
:10195C00704700BF00ED00E080B400AF044BDB68C3
:10196C001B0A03F007031846BD4680BC704700BF36
:10197C0000ED00E080B483B000AF0346FB7197F933
:10198C000730002B0BDBFB7903F01F02064997F99C
:10199C0007305B09012000FA02F241F8232000BF56
:1019AC000C37BD4680BC704700E100E080B483B0CA
:1019BC0000AF03463960FB7197F90730002B0ADB47
:1019CC003B68DAB20C4997F907301201D2B20B44DA
:1019DC0083F800230AE03B68DAB20849FB7903F08C
:1019EC000F03043B1201D2B20B441A7600BF0C3722
:1019FC00BD4680BC704700BF00E100E000ED00E098
:101A0C0080B489B000AFF860B9607A60FB6803F00D
:101A1C000703FB61FB69C3F10703042B28BF0423F5
:101A2C00BB61FB690433062B02D9FB69033B00E065
:101A3C0000237B614FF0FF32BB6902FA03F3DA43F8
:101A4C00BB681A407B699A404FF0FF317B6901FA01
:101A5C0003F3D9437B680B40134318462437BD4628
:101A6C0080BC704780B582B000AF78607B68013B6A
:101A7C00B3F1807F01D301230FE00A4A7B68013B5D
:101A8C0053600F214FF0FF30FFF790FF054B002202
:101A9C009A60044B07221A60002318460837BD468B
:101AAC0080BD00BF10E000E080B582B000AF786070
:101ABC007868FFF72DFF00BF0837BD4680BD80B5A5
:101ACC0086B000AF0346B9607A60FB7300237B617C
:101ADC00FFF742FF78617A68B9687869FFF790FF81
:101AEC00024697F90F3011461846FFF75FFF00BF0B
:101AFC001837BD4680BD80B582B000AF0346FB7180
:101B0C0097F907301846FFF735FF00BF0837BD4679
:101B1C0080BD80B582B000AF78607868FFF7A2FF17
:101B2C00034618460837BD4680BD000080B48BB014
:101B3C0000AF7860396000237B6200233B6261E177
:101B4C0001227B6A02FA03F3FB613B681B68FA69AA
:101B5C001340BB61BA69FB699A4240F050813B6803
:101B6C005B68974A93425ED0954A934275D8954AE2
:101B7C00934258D0934A93426FD8934A934252D08F
:101B8C00914A934269D8914A93424CD08F4A9342DE
:101B9C0063D88F4A934246D08D4A93425DD8122B1C
:101BAC002AD8122B59D801A252F823F0331C000862
:101BBC000D1C00081F1C0008611C0008671C000895
:101BCC00671C0008671C0008671C0008671C0008DD
:101BDC00671C0008671C0008671C0008671C0008CD
:101BEC00671C0008671C0008671C0008671C0008BD
:101BFC00151C0008291C0008764A934213D02CE0CF
:101C0C003B68DB683B6229E03B68DB6804333B6282
:101C1C0024E03B68DB6808333B621FE03B68DB6811
:101C2C000C333B621AE03B689B68002B02D1042307
:101C3C003B6213E03B689B68012B05D108233B6298
:101C4C007B68FA691A6109E008233B627B68FA69D0
:101C5C005A6103E000233B6200E000BFBB69FF2B2D
:101C6C0001D87B6801E07B6804337B61BB69FF2B87
:101C7C0002D87B6A9B0002E07B6A083B9B003B61BD
:101C8C007B691A680F213B6901FA03F3DB431A40A5
:101C9C00396A3B6901FA03F31A437B691A603B68A2
:101CAC005B6803F08053002B00F0A9804A4B9B69C2
:101CBC00494A43F001039361474B9B6903F00103CD
:101CCC00BB60BB68454A7B6A9B08023352F82330E1
:101CDC00FB607B6A03F003039B000F2202FA03F301
:101CEC00DB43FA681340FB607B683D4A93420DD09E
:101CFC007B683C4A934207D07B683B4A934201D1B4
:101D0C00022304E0032302E0012300E000237A6AAB
:101D1C0002F0030292009340FA681343FB602F49D0
:101D2C007B6A9B080233FA6841F823203B685B68A6
:101D3C0003F48013002B06D02C4B9A682B49BB69FB
:101D4C0013438B6006E0294B9A68BB69DB43274938
:101D5C0013408B603B685B6803F40013002B06D0C8
:101D6C00224BDA682149BB691343CB6006E01F4B59
:101D7C00DA68BB69DB431D491340CB603B685B6889
:101D8C0003F40033002B06D0184B5A681749BB6973
:101D9C0013434B6006E0154B5A68BB69DB43134990
:101DAC0013404B603B685B6803F48033002B1FD0FF
:101DBC000E4B1A680D49BB6913430B601FE000BF43
:101DCC000000321000003110000022100000211021
:101DDC000000121000001110001002400000014021
:101DEC0000080140000C01400010014000040140BB
:101DFC000B4B1A68BB69DB43094913400B607B6AC8
:101E0C0001337B623B681A687B6A22FA03F3002B6E
:101E1C007FF496AE00BF00BF2C37BD4680BC704728
:101E2C000004014080B485B000AF78600B467B8025
:101E3C007B689A687B881340002B02D00123FB73CC
:101E4C0001E00023FB73FB7B18461437BD4680BCB6
:101E5C00704780B483B000AF78600B467B8013462C
:101E6C007B707B78002B03D07A887B681A6103E047
:101E7C007B881A047B681A6100BF0C37BD4680BC96
:101E8C00704780B485B000AF78600B467B807B6870
:101E9C00DB68FB607A88FB6813401A04FB68D94343
:101EAC007B880B401A437B681A6100BF1437BD4610
:101EBC0080BC704780B586B000AF78607B68002B23
:101ECC0001D1012372E27B681B6803F00103002B34
:101EDC0000F08780924B5B6803F00C03042B0CD052
:101EEC008F4B5B6803F00C03082B12D18C4B5B6897
:101EFC0003F48033B3F5803F0BD1894B1B6803F49B
:101F0C000033002B6CD07B685B68002B68D10123FD
:101F1C004CE27B685B68B3F5803F06D1804B1B6855
:101F2C007F4A43F4803313602EE07B685B68002BA0
:101F3C000CD17B4B1B687A4A23F480331360784BAB
:101F4C001B68774A23F4802313601DE07B685B6871
:101F5C00B3F5A02F0CD1724B1B68714A43F480234C
:101F6C0013606F4B1B686E4A43F4803313600BE0B5
:101F7C006B4B1B686A4A23F480331360684B1B68F5
:101F8C00674A23F4802313607B685B68002B13D0B3
:101F9C00FFF7B4FC386108E0FFF7B0FC02463B6980
:101FAC00D31A642B01D9032300E25D4B1B6803F4A5
:101FBC000033002BF0D014E0FFF7A0FC386108E0F0
:101FCC00FFF79CFC02463B69D31A642B01D903230F
:101FDC00ECE1534B1B6803F40033002BF0D100E011
:101FEC0000BF7B681B6803F00203002B63D04C4BD3
:101FFC005B6803F00C03002B0BD0494B5B6803F0C0
:10200C000C03082B1CD1464B5B6803F48033002B6C
:10201C0016D1434B1B6803F00203002B05D07B68E1
:10202C001B69012B01D00123C0E13D4B1B6823F040
:10203C00F8027B685B69DB00394913430B603AE0BB
:10204C007B681B69002B20D0364B01221A60FFF7EE
:10205C0055FC386108E0FFF751FC02463B69D31A86
:10206C00022B01D90323A1E12D4B1B6803F00203C2
:10207C00002BF0D02A4B1B6823F0F8027B685B69BD
:10208C00DB00274913430B6015E0264B00221A6036
:10209C00FFF734FC386108E0FFF730FC02463B697F
:1020AC00D31A022B01D9032380E11D4B1B6803F0CB
:1020BC000203002BF0D17B681B6803F00803002B94
:1020CC003AD07B689B69002B19D0174B01221A6000
:1020DC00FFF714FC386108E0FFF710FC02463B697F
:1020EC00D31A022B01D9032360E10D4B5B6A03F079
:1020FC000203002BF0D0012000F09CFA1CE00A4BEC
:10210C0000221A60FFF7FAFB38610FE0FFF7F6FBCD
:10211C0002463B69D31A022B08D9032346E100BFC0
:10212C00001002400000424280044242924B5B6A23
:10213C0003F00203002BE9D17B681B6803F0040356
:10214C00002B00F0A6800023FB758B4BDB6903F0A2
:10215C008053002B0DD1884BDB69874A43F08053A9
:10216C00D361854BDB6903F08053BB60BB680123F3
:10217C00FB75824B1B6803F48073002B18D17F4BCB
:10218C001B687E4A43F480731360FFF7B7FB38611A
:10219C0008E0FFF7B3FB02463B69D31A642B01D965
:1021AC00032303E1754B1B6803F48073002BF0D001
:1021BC007B68DB68012B06D16F4B1B6A6E4A43F0C0
:1021CC00010313622DE07B68DB68002B0CD16A4B9A
:1021DC001B6A694A23F001031362674B1B6A664A48
:1021EC0023F0040313621CE07B68DB68052B0CD125
:1021FC00614B1B6A604A43F0040313625E4B1B6A1B
:10220C005D4A43F0010313620BE05B4B1B6A5A4AB5
:10221C0023F001031362584B1B6A574A23F0040343
:10222C0013627B68DB68002B15D0FFF767FB386106
:10223C000AE0FFF763FB02463B69D31A41F288328E
:10224C00934201D90323B1E04B4B1B6A03F0020309
:10225C00002BEED014E0FFF751FB38610AE0FFF7DA
:10226C004DFB02463B69D31A41F28832934201D9A5
:10227C0003239BE0404B1B6A03F00203002BEED1BF
:10228C00FB7D012B05D13C4BDB693B4A23F0805392
:10229C00D3617B68DB69002B00F08780364B5B6871
:1022AC0003F00C03082B61D07B68DB69022B46D151
:1022BC00334B00221A60FFF721FB386108E0FFF76F
:1022CC001DFB02463B69D31A022B01D903236DE097
:1022DC00294B1B6803F00073002BF0D17B681B6A41
:1022EC00B3F5803F08D1244B5B6823F400327B6844
:1022FC009B68214913434B601F4B5B6823F474129A
:10230C007B68196A7B685B6A0B431B4913434B6000
:10231C001B4B01221A60FFF7F1FA386108E0FFF756
:10232C00EDFA02463B69D31A022B01D903233DE097
:10233C00114B1B6803F00073002BF0D035E0104BF1
:10234C0000221A60FFF7DAFA386108E0FFF7D6FAD4
:10235C0002463B69D31A022B01D9032326E0064B14
:10236C001B6803F00073002BF0D11EE07B68DB6967
:10237C00012B07D1012319E000100240007000402E
:10238C00600042420B4B5B68FB60FB6803F48032DD
:10239C007B681B6A9A4206D1FB6803F470127B6857
:1023AC005B6A9A4201D0012300E0002318461837DB
:1023BC00BD4680BD0010024080B584B000AF78608F
:1023CC0039607B68002B01D10123D0E06A4B1B687C
:1023DC0003F007033A689A4210D9674B1B6823F045
:1023EC00070265493B6813430B60634B1B6803F0A2
:1023FC0007033A689A4201D00123B8E07B681B6856
:10240C0003F00203002B20D07B681B6803F004034D
:10241C00002B05D0594B5B68584A43F4E06353607A
:10242C007B681B6803F00803002B05D0534B5B68DB
:10243C00524A43F460535360504B5B6823F0F002F4
:10244C007B689B684D4913434B607B681B6803F0AA
:10245C000103002B40D07B685B68012B07D1474BF5
:10246C001B6803F40033002B15D101237FE07B683C
:10247C005B68022B07D1414B1B6803F00073002BE8
:10248C0009D1012373E03D4B1B6803F00203002BC1
:10249C0001D101236BE0394B5B6823F003027B68AD
:1024AC005B68364913434B60FFF728FAF8600AE083
:1024BC00FFF724FA0246FB68D31A41F288329342A2
:1024CC0001D9032353E02D4B5B6803F00C027B68AE
:1024DC005B689B009A42EBD1274B1B6803F0070308
:1024EC003A689A4210D2244B1B6823F00702224907
:1024FC003B6813430B60204B1B6803F007033A68DF
:10250C009A4201D0012332E07B681B6803F004037C
:10251C00002B08D0194B5B6823F4E0627B68DB6806
:10252C00164913434B607B681B6803F00803002BB0
:10253C0009D0124B5B6823F460527B681B69DB008B
:10254C000E4913434B6000F021F802460B4B5B68BD
:10255C001B0903F00F030A49CB5C22FA03F3094A67
:10256C001360094B1B681846FFF786F900231846C1
:10257C001037BD4680BD00BF002002400010024055
:10258C00A42E0008440000206000002080B487B016
:10259C0000AF0023FB600023BB6000237B610023A2
:1025AC007B6000233B611E4B5B68FB60FB6803F0A8
:1025BC000C03042B02D0082B03D027E0194B3B61F2
:1025CC0027E0FB689B0C03F00F03174AD35C7B607E
:1025DC00FB6803F48033002B10D0114B5B685B0C51
:1025EC0003F00103114AD35CBB607B680D4A03FB0B
:1025FC0002F2BB68B2FBF3F37B6104E07B680C4A2C
:10260C0002FB03F37B617B693B6102E0054B3B61A1
:10261C0000BF3B6918461C37BD4680BC704700BFE5
:10262C000010024000127A00B42E0008C42E0008DC
:10263C0000093D0080B485B000AF78600A4B1B6880
:10264C000A4AA2FB03235B0A7A6802FB03F3FB60D2
:10265C0000BFFB685A1EFA60002BF9D100BF00BF07
:10266C001437BD4680BC704744000020D34D621027
:10267C0080B582B000AF78607B68002B01D101235C
:10268C0041E07B6893F83D30DBB2002B06D17B68D0
:10269C00002283F83C207868FEF766FF7B680222F4
:1026AC0083F83D207B681A687B6804331946104612
:1026BC0000F056FA7B68012283F846207B680122E1
:1026CC0083F83E207B68012283F83F207B6801223F
:1026DC0083F840207B68012283F841207B6801222B
:1026EC0083F842207B68012283F843207B68012217
:1026FC0083F844207B68012283F845207B68012203
:10270C0083F83D20002318460837BD4680BD0000E5
:10271C0080B485B000AF78607B6893F83D30DBB255
:10272C00012B01D0012335E07B68022283F83D2088
:10273C007B681B68DA687B681B6842F00102DA6010
:10274C007B681B68164A934209D07B681B68B3F1FF
:10275C00804F04D07B681B68124A934211D17B686E
:10276C001B689B6803F00703FB60FB68062B10D00B
:10277C007B681B681A687B681B6842F001021A6050
:10278C0007E07B681B681A687B681B6842F00102D3
:10279C001A60002318461437BD4680BC704700BF32
:1027AC00002C01400004004080B584B000AF78607C
:1027BC007B681B68DB68FB607B681B681B69BB6004
:1027CC00BB6803F00203002B20D0FB6803F002036C
:1027DC00002B1BD07B681B686FF002021A617B68B0
:1027EC0001221A777B681B689B6903F00303002B9B
:1027FC0003D0786800F098F905E0786800F08BF960
:10280C00786800F09AF97B6800221A77BB6803F0AD
:10281C000403002B20D0FB6803F00403002B1BD017
:10282C007B681B686FF004021A617B6802221A77BE
:10283C007B681B689B6903F44073002B03D078689A
:10284C0000F072F905E0786800F065F9786800F03E
:10285C0074F97B6800221A77BB6803F00803002B1D
:10286C0020D0FB6803F00803002B1BD07B681B688F
:10287C006FF008021A617B6804221A777B681B6868
:10288C00DB6903F00303002B03D0786800F04CF9EC
:10289C0005E0786800F03FF9786800F04EF97B6845
:1028AC0000221A77BB6803F01003002B20D0FB68C2
:1028BC0003F01003002B1BD07B681B686FF0100219
:1028CC001A617B6808221A777B681B68DB6903F442
:1028DC004073002B03D0786800F026F905E0786887
:1028EC0000F019F9786800F028F97B6800221A7753
:1028FC00BB6803F00103002B0CD0FB6803F0010351
:10290C00002B07D07B681B686FF001021A61786896
:10291C00FEF762FDBB6803F08003002B0CD0FB6854
:10292C0003F08003002B07D07B681B686FF08002DC
:10293C001A61786800F06FFABB6803F04003002B53
:10294C000CD0FB6803F04003002B07D07B681B689E
:10295C006FF040021A61786800F0F8F8BB6803F079
:10296C002003002B0CD0FB6803F02003002B07D0B6
:10297C007B681B686FF020021A61786800F042FADD
:10298C0000BF1037BD4680BD80B584B000AF786005
:10299C0039600023FB737B6893F83C30012B01D129
:1029AC000223B4E07B68012283F83C207B6802227E
:1029BC0083F83D207B681B689B68BB60BB6823F079
:1029CC007703BB60BB6823F47F43BB607B681B68E9
:1029DC00BA689A603B681B68B3F5005F3ED0B3F5EC
:1029EC00005F00F28780B3F5805F00F08680B3F55E
:1029FC00805F7FD8702B1AD0702B7BD8602B50D077
:102A0C00602B77D8502B3CD0502B73D8402B58D000
:102A1C00402B6FD8302B64D0302B6BD8202B60D050
:102A2C00202B67D8002B5CD0102B5AD062E07B682F
:102A3C0018683B6899683B685A683B68DB6800F02B
:102A4C006AF97B681B689B68BB60BB6843F07703C3
:102A5C00BB607B681B68BA689A604FE07B6818683B
:102A6C003B6899683B685A683B68DB6800F053F92F
:102A7C007B681B689A687B681B6842F480429A608A
:102A8C003CE07B6818683B6859683B68DB681A4611
:102A9C0000F0CAF87B681B685021184600F021F939
:102AAC002CE07B6818683B6859683B68DB681A4601
:102ABC0000F0E8F87B681B686021184600F011F9FB
:102ACC001CE07B6818683B6859683B68DB681A46F1
:102ADC0000F0AAF87B681B684021184600F001F949
:102AEC000CE07B681A683B681B681946104600F0BE
:102AFC00F8F803E00123FB7300E000BF7B680122C0
:102B0C0083F83D207B68002283F83C20FB7B184631
:102B1C001037BD4680BD80B483B000AF786000BF75
:102B2C000C37BD4680BC704780B483B000AF786072
:102B3C0000BF0C37BD4680BC704780B483B000AF7B
:102B4C00786000BF0C37BD4680BC704780B483B042
:102B5C0000AF786000BF0C37BD4680BC70470000EA
:102B6C0080B485B000AF786039607B681B68FB600F
:102B7C007B682B4A934207D07B68B3F1804F03D01C
:102B8C007B68284A934208D1FB6823F07003FB60F2
:102B9C003B685B68FA681343FB607B68204A93428E
:102BAC0007D07B68B3F1804F03D07B681D4A9342FA
:102BBC0008D1FB6823F44073FB603B68DB68FA6860
:102BCC001343FB60FB6823F080023B685B69134393
:102BDC00FB607B68FA681A603B689A687B68DA620B
:102BEC003B681A687B689A627B680D4A934203D1F2
:102BFC003B681A697B681A637B6801225A617B689F
:102C0C001B6903F00103002B05D07B681B6923F0C3
:102C1C0001027B681A6100BF1437BD4680BC704747
:102C2C00002C01400004004080B487B000AFF86075
:102C3C00B9607A60FB681B6A7B61FB681B6A23F0D6
:102C4C000102FB681A62FB689B693B613B6923F0DC
:102C5C00F0033B617B681B013A6913433B617B6961
:102C6C0023F00A037B617A69BB6813437B61FB68C1
:102C7C003A699A61FB687A691A6200BF1C37BD46D3
:102C8C0080BC704780B487B000AFF860B9607A60E0
:102C9C00FB681B6A7B61FB681B6A23F01002FB68F4
:102CAC001A62FB689B693B613B6923F470433B618F
:102CBC007B681B033A6913433B617B6923F0A003D8
:102CCC007B61BB681B017A6913437B61FB683A69C2
:102CDC009A61FB687A691A6200BF1C37BD4680BCDA
:102CEC00704780B485B000AF786039607B689B68B2
:102CFC00FB60FB6823F07003FB603A68FB681343CE
:102D0C0043F00703FB607B68FA689A6000BF1437D6
:102D1C00BD4680BC704780B487B000AFF860B96026
:102D2C007A603B60FB689B687B617B6923F47F4323
:102D3C007B613B681A027B681A43BB6813437A6950
:102D4C0013437B61FB687A699A6000BF1C37BD46F0
:102D5C0080BC704780B485B000AF786039607B6808
:102D6C0093F83C30012B01D1022341E07B68012216
:102D7C0083F83C207B68022283F83D207B681B682B
:102D8C005B68FB607B681B689B68BB60FB6823F01F
:102D9C007003FB603B681B68FA681343FB607B683D
:102DAC001B68FA685A607B681B68144A934209D006
:102DBC007B681B68B3F1804F04D07B681B68104A9A
:102DCC0093420CD1BB6823F08003BB603B685B680B
:102DDC00BA681343BB607B681B68BA689A607B68EF
:102DEC00012283F83D207B68002283F83C200023DD
:102DFC0018461437BD4680BC704700BF002C0140FC
:102E0C000004004080B483B000AF786000BF0C3782
:102E1C00BD4680BC704780B483B000AF786000BF03
:102E2C000C37BD4680BC704703460244934200D128
:102E3C00704703F8011BF9E770B500260C4D0D4CDB
:102E4C00641BA410A64209D100F01AF800260A4D02
:102E5C000A4C641BA410A64205D170BD55F8043B66
:102E6C0098470136EEE755F8043B98470136F2E7F0
:102E7C00C82E0008C82E0008C82E0008CC2E00084A
:102E8C00F8B500BFF8BC08BC9E467047F8B500BF4B
:082E9C00F8BC08BC9E4670471B
:102EA40000000000000000000102030406070809F6
:102EB40002030405060708090A0B0C0D0E0F101077
:042EC4000102000007
:042EC80031010008CC
:042ECC000D010008EC
:102ED00002000000050000000200000003000000E6
:102EE00005000000020000000300000005000000D3
:102EF00002000000030000000500000002000000C6
:102F000003000000010101000101010001010100B5
:102F1000010101000024F4000A000000010000008B
:102F2000010000000100000001000000010000009D
:082F3000100000000100000088
:040000050800180DCA
:00000001FF
